{
  "contractName": "Member",
  "abi": [
    {
      "constant": true,
      "inputs": [
        {
          "name": "",
          "type": "address"
        }
      ],
      "name": "memberList",
      "outputs": [
        {
          "name": "id",
          "type": "uint256"
        },
        {
          "name": "userID",
          "type": "bytes32"
        },
        {
          "name": "coopID",
          "type": "bytes32"
        },
        {
          "name": "issuedDate",
          "type": "string"
        },
        {
          "name": "expirationDate",
          "type": "string"
        },
        {
          "name": "approvedBy",
          "type": "string"
        },
        {
          "name": "isApproved",
          "type": "bool"
        }
      ],
      "payable": false,
      "stateMutability": "view",
      "type": "function"
    },
    {
      "constant": true,
      "inputs": [
        {
          "name": "",
          "type": "address"
        }
      ],
      "name": "coopList",
      "outputs": [
        {
          "name": "id",
          "type": "uint256"
        },
        {
          "name": "coopName",
          "type": "string"
        },
        {
          "name": "coopDescription",
          "type": "string"
        },
        {
          "name": "issuedDate",
          "type": "string"
        }
      ],
      "payable": false,
      "stateMutability": "view",
      "type": "function"
    },
    {
      "constant": true,
      "inputs": [
        {
          "name": "",
          "type": "address"
        }
      ],
      "name": "userList",
      "outputs": [
        {
          "name": "id",
          "type": "uint256"
        },
        {
          "name": "name",
          "type": "string"
        }
      ],
      "payable": false,
      "stateMutability": "view",
      "type": "function"
    },
    {
      "constant": true,
      "inputs": [
        {
          "name": "",
          "type": "address"
        }
      ],
      "name": "roleList",
      "outputs": [
        {
          "name": "id",
          "type": "uint256"
        },
        {
          "name": "memberID",
          "type": "bytes32"
        },
        {
          "name": "coopID",
          "type": "bytes32"
        },
        {
          "name": "roles",
          "type": "uint8"
        },
        {
          "name": "issuedDate",
          "type": "string"
        },
        {
          "name": "expirationDate",
          "type": "string"
        }
      ],
      "payable": false,
      "stateMutability": "view",
      "type": "function"
    },
    {
      "anonymous": false,
      "inputs": [
        {
          "indexed": false,
          "name": "_id",
          "type": "uint256"
        }
      ],
      "name": "SetUser",
      "type": "event"
    },
    {
      "anonymous": false,
      "inputs": [
        {
          "indexed": false,
          "name": "_id",
          "type": "uint256"
        }
      ],
      "name": "SetCoop",
      "type": "event"
    },
    {
      "constant": false,
      "inputs": [
        {
          "name": "_name",
          "type": "string"
        }
      ],
      "name": "setUser",
      "outputs": [],
      "payable": false,
      "stateMutability": "nonpayable",
      "type": "function"
    },
    {
      "constant": false,
      "inputs": [
        {
          "name": "_coopAddress",
          "type": "address"
        },
        {
          "name": "_coopname",
          "type": "string"
        },
        {
          "name": "_coopdesc",
          "type": "string"
        },
        {
          "name": "_issuedDate",
          "type": "string"
        },
        {
          "name": "_createdby",
          "type": "bytes32[]"
        }
      ],
      "name": "setCoop",
      "outputs": [],
      "payable": false,
      "stateMutability": "nonpayable",
      "type": "function"
    },
    {
      "constant": false,
      "inputs": [],
      "name": "verifyUser",
      "outputs": [],
      "payable": false,
      "stateMutability": "nonpayable",
      "type": "function"
    },
    {
      "constant": false,
      "inputs": [],
      "name": "verifyCoop",
      "outputs": [],
      "payable": false,
      "stateMutability": "nonpayable",
      "type": "function"
    },
    {
      "constant": false,
      "inputs": [],
      "name": "addMember",
      "outputs": [],
      "payable": false,
      "stateMutability": "nonpayable",
      "type": "function"
    },
    {
      "constant": false,
      "inputs": [],
      "name": "totalUsers",
      "outputs": [
        {
          "name": "",
          "type": "uint256"
        }
      ],
      "payable": false,
      "stateMutability": "nonpayable",
      "type": "function"
    }
  ],
  "bytecode": "0x60806040526000805560006001556000600255600060035534801561002357600080fd5b506111ff806100336000396000f3006080604052600436106100a4576000357c0100000000000000000000000000000000000000000000000000000000900463ffffffff168063029d010d146100a957806305ae3592146100c057806316a9cf55146102845780631b4e7bd21461041f57806355c321b8146104e257806395407482146104f9578063bff1f9e114610510578063c48bc4841461053b578063d0020fad14610693578063f948cd70146106fc575b600080fd5b3480156100b557600080fd5b506100be61085e565b005b3480156100cc57600080fd5b50610101600480360381019080803573ffffffffffffffffffffffffffffffffffffffff169060200190929190505050610860565b604051808881526020018760001916600019168152602001866000191660001916815260200180602001806020018060200185151515158152602001848103845288818151815260200191508051906020019080838360005b8381101561017557808201518184015260208101905061015a565b50505050905090810190601f1680156101a25780820380516001836020036101000a031916815260200191505b50848103835287818151815260200191508051906020019080838360005b838110156101db5780820151818401526020810190506101c0565b50505050905090810190601f1680156102085780820380516001836020036101000a031916815260200191505b50848103825286818151815260200191508051906020019080838360005b83811015610241578082015181840152602081019050610226565b50505050905090810190601f16801561026e5780820380516001836020036101000a031916815260200191505b509a505050505050505050505060405180910390f35b34801561029057600080fd5b506102c5600480360381019080803573ffffffffffffffffffffffffffffffffffffffff169060200190929190505050610a77565b60405180858152602001806020018060200180602001848103845287818151815260200191508051906020019080838360005b838110156103135780820151818401526020810190506102f8565b50505050905090810190601f1680156103405780820380516001836020036101000a031916815260200191505b50848103835286818151815260200191508051906020019080838360005b8381101561037957808201518184015260208101905061035e565b50505050905090810190601f1680156103a65780820380516001836020036101000a031916815260200191505b50848103825285818151815260200191508051906020019080838360005b838110156103df5780820151818401526020810190506103c4565b50505050905090810190601f16801561040c5780820380516001836020036101000a031916815260200191505b5097505050505050505060405180910390f35b34801561042b57600080fd5b50610460600480360381019080803573ffffffffffffffffffffffffffffffffffffffff169060200190929190505050610c6f565b6040518083815260200180602001828103825283818151815260200191508051906020019080838360005b838110156104a657808201518184015260208101905061048b565b50505050905090810190601f1680156104d35780820380516001836020036101000a031916815260200191505b50935050505060405180910390f35b3480156104ee57600080fd5b506104f7610d2b565b005b34801561050557600080fd5b5061050e610d2d565b005b34801561051c57600080fd5b50610525610d2f565b6040518082815260200191505060405180910390f35b34801561054757600080fd5b50610691600480360381019080803573ffffffffffffffffffffffffffffffffffffffff169060200190929190803590602001908201803590602001908080601f0160208091040260200160405190810160405280939291908181526020018383808284378201915050505050509192919290803590602001908201803590602001908080601f0160208091040260200160405190810160405280939291908181526020018383808284378201915050505050509192919290803590602001908201803590602001908080601f016020809104026020016040519081016040528093929190818152602001838380828437820191505050505050919291929080359060200190820180359060200190808060200260200160405190810160405280939291908181526020018383602002808284378201915050505050509192919290505050610d34565b005b34801561069f57600080fd5b506106fa600480360381019080803590602001908201803590602001908080601f0160208091040260200160405190810160405280939291908181526020018383808284378201915050505050509192919290505050610e70565b005b34801561070857600080fd5b5061073d600480360381019080803573ffffffffffffffffffffffffffffffffffffffff169060200190929190505050610f3d565b604051808781526020018660001916600019168152602001856000191660001916815260200184600781111561076f57fe5b60ff1681526020018060200180602001838103835285818151815260200191508051906020019080838360005b838110156107b757808201518184015260208101905061079c565b50505050905090810190601f1680156107e45780820380516001836020036101000a031916815260200191505b50838103825284818151815260200191508051906020019080838360005b8381101561081d578082015181840152602081019050610802565b50505050905090810190601f16801561084a5780820380516001836020036101000a031916815260200191505b509850505050505050505060405180910390f35b565b6006602052806000526040600020600091509050806000015490806001015490806002015490806003018054600181600116156101000203166002900480601f01602080910402602001604051908101604052809291908181526020018280546001816001161561010002031660029004801561091e5780601f106108f35761010080835404028352916020019161091e565b820191906000526020600020905b81548152906001019060200180831161090157829003601f168201915b505050505090806004018054600181600116156101000203166002900480601f0160208091040260200160405190810160405280929190818152602001828054600181600116156101000203166002900480156109bc5780601f10610991576101008083540402835291602001916109bc565b820191906000526020600020905b81548152906001019060200180831161099f57829003601f168201915b505050505090806005018054600181600116156101000203166002900480601f016020809104026020016040519081016040528092919081815260200182805460018160011615610100020316600290048015610a5a5780601f10610a2f57610100808354040283529160200191610a5a565b820191906000526020600020905b815481529060010190602001808311610a3d57829003601f168201915b5050505050908060060160009054906101000a900460ff16905087565b6005602052806000526040600020600091509050806000015490806001018054600181600116156101000203166002900480601f016020809104026020016040519081016040528092919081815260200182805460018160011615610100020316600290048015610b295780601f10610afe57610100808354040283529160200191610b29565b820191906000526020600020905b815481529060010190602001808311610b0c57829003601f168201915b505050505090806002018054600181600116156101000203166002900480601f016020809104026020016040519081016040528092919081815260200182805460018160011615610100020316600290048015610bc75780601f10610b9c57610100808354040283529160200191610bc7565b820191906000526020600020905b815481529060010190602001808311610baa57829003601f168201915b505050505090806003018054600181600116156101000203166002900480601f016020809104026020016040519081016040528092919081815260200182805460018160011615610100020316600290048015610c655780601f10610c3a57610100808354040283529160200191610c65565b820191906000526020600020905b815481529060010190602001808311610c4857829003601f168201915b5050505050905084565b6004602052806000526040600020600091509050806000015490806001018054600181600116156101000203166002900480601f016020809104026020016040519081016040528092919081815260200182805460018160011615610100020316600290048015610d215780601f10610cf657610100808354040283529160200191610d21565b820191906000526020600020905b815481529060010190602001808311610d0457829003601f168201915b5050505050905082565b565b565b600090565b60006001600081548092919060010191905055905060a06040519081016040528082815260200186815260200185815260200184815260200183815250600560008873ffffffffffffffffffffffffffffffffffffffff1673ffffffffffffffffffffffffffffffffffffffff168152602001908152602001600020600082015181600001556020820151816001019080519060200190610dd69291906110b6565b506040820151816002019080519060200190610df39291906110b6565b506060820151816003019080519060200190610e109291906110b6565b506080820151816004019080519060200190610e2d929190611136565b509050507f395deb68fc949fe302aaf9b5ccfb899df34f1c8fd3e7e4a7add9e489b0a5444d816040518082815260200191505060405180910390a1505050505050565b6000806000815480929190600101919050559050604080519081016040528082815260200183815250600460003373ffffffffffffffffffffffffffffffffffffffff1673ffffffffffffffffffffffffffffffffffffffff168152602001908152602001600020600082015181600001556020820151816001019080519060200190610efe9291906110b6565b509050507f375b76326df251a4b74af4c3a257601d1c01f3136ff4e99b786d9d3c6d828cfa816040518082815260200191505060405180910390a15050565b60076020528060005260406000206000915090508060000154908060010154908060020154908060030160009054906101000a900460ff1690806004018054600181600116156101000203166002900480601f01602080910402602001604051908101604052809291908181526020018280546001816001161561010002031660029004801561100e5780601f10610fe35761010080835404028352916020019161100e565b820191906000526020600020905b815481529060010190602001808311610ff157829003601f168201915b505050505090806005018054600181600116156101000203166002900480601f0160208091040260200160405190810160405280929190818152602001828054600181600116156101000203166002900480156110ac5780601f10611081576101008083540402835291602001916110ac565b820191906000526020600020905b81548152906001019060200180831161108f57829003601f168201915b5050505050905086565b828054600181600116156101000203166002900490600052602060002090601f016020900481019282601f106110f757805160ff1916838001178555611125565b82800160010185558215611125579182015b82811115611124578251825591602001919060010190611109565b5b5090506111329190611189565b5090565b828054828255906000526020600020908101928215611178579160200282015b82811115611177578251829060001916905591602001919060010190611156565b5b50905061118591906111ae565b5090565b6111ab91905b808211156111a757600081600090555060010161118f565b5090565b90565b6111d091905b808211156111cc5760008160009055506001016111b4565b5090565b905600a165627a7a723058209b0d65e25d3d3fa5176b29b3404df943c3bdc24f102cde87ade9320df5e0950d0029",
  "source": "pragma solidity ^0.4.23;\n\nimport 'openzeppelin-solidity/contracts/ownership/Ownable.sol';\nimport 'openzeppelin-solidity/contracts/math/SafeMath.sol';\n\ncontract Member {\n\n  /* Identities for Blockchain Cooperatives */\n  enum CoopRoles { Member, Staff, Director, President, Manager, Secretary, Auditor, Treasurer }\n\n  struct User {\n    /* Unique Identifier for Users */\n    uint id;\n    string name;\n  }\n\n  struct Membership {\n    /* Unique Identifier for Coop Members */\n    uint id;\n    bytes32 userID;\n    bytes32 coopID;\n    string issuedDate;\n    string expirationDate;\n    string approvedBy;\n    bool isApproved;\n  }\n\n  struct Cooperative {\n    /* Unique Identifier for Cooperative */\n    uint id;\n    string coopName;\n    string coopDescription;\n    string issuedDate;\n    bytes32[] createdby;\n  }\n\n  struct CoopMemberRoles{\n    uint id;\n    bytes32 memberID;\n    bytes32 coopID;\n    CoopRoles roles;\n    string issuedDate;\n    string expirationDate;\n  }\n\n  /* Entity ID Initializers */\n  uint userID = 0;\n  uint coopID = 0;\n  uint memberID = 0;\n  uint roleID = 0;\n\n  /* Entity Lists */\n  mapping(address => User) public userList;\n  mapping(address => Cooperative) public coopList;\n  mapping(address => Membership) public memberList;\n  mapping(address => CoopMemberRoles) public roleList;\n\n  /* Events */\n  event SetUser(uint _id);\n  event SetCoop(uint _id);\n\n  /* Contract Functions */\n  function setUser(string _name) public {\n    uint id = userID++;\n    userList[msg.sender] = User(id, _name);\n    emit SetUser(id);\n  }\n\n  function setCoop(address _coopAddress, string _coopname, string _coopdesc, string _issuedDate, bytes32[] _createdby) public {\n    uint id = coopID++;\n    coopList[_coopAddress] = Cooperative(id, _coopname, _coopdesc, _issuedDate, _createdby);\n    emit SetCoop(id);\n  }\n\n  function verifyUser() public {\n    /* Verify (return boolean if user is existing) or get User Name via user address */\n  }\n\n  function verifyCoop() public {\n    /* Verify (return boolean if user is existing) or get User Name via user address */\n  }\n\n  function addMember() public {\n    /* Only Add to coop if user have contributed X Ether */\n  }\n\n  function totalUsers() public returns(uint256){\n\n  }\n}\n",
  "sourcePath": "/mnt/Files/Documents/Workspace/Psycellium-Project/ethereum/contracts/members/Members.sol",
  "compiler": {
    "name": "solc",
    "version": "0.4.24+commit.e67f0147.Emscripten.clang"
  },
  "schemaVersion": "2.0.1",
  "updatedAt": "2018-11-23T10:38:46.181Z"
}