{
  "contractName": "Psycellium",
  "abi": [
    {
      "constant": false,
      "inputs": [
        {
          "name": "name",
          "type": "string"
        }
      ],
      "name": "setMemberName",
      "outputs": [],
      "payable": false,
      "stateMutability": "nonpayable",
      "type": "function"
    },
    {
      "constant": false,
      "inputs": [
        {
          "name": "_members",
          "type": "address[]"
        },
        {
          "name": "_coopid",
          "type": "uint256"
        }
      ],
      "name": "setMember",
      "outputs": [],
      "payable": false,
      "stateMutability": "nonpayable",
      "type": "function"
    },
    {
      "constant": false,
      "inputs": [
        {
          "name": "coopaddress",
          "type": "string"
        },
        {
          "name": "director",
          "type": "address[]"
        },
        {
          "name": "coopname",
          "type": "string"
        },
        {
          "name": "coopdesc",
          "type": "string"
        },
        {
          "name": "issueddate",
          "type": "string"
        }
      ],
      "name": "createCoop",
      "outputs": [],
      "payable": false,
      "stateMutability": "nonpayable",
      "type": "function"
    },
    {
      "constant": false,
      "inputs": [
        {
          "name": "directors",
          "type": "address[]"
        },
        {
          "name": "coopid",
          "type": "uint256"
        }
      ],
      "name": "setBoardOfDirectors",
      "outputs": [],
      "payable": false,
      "stateMutability": "nonpayable",
      "type": "function"
    },
    {
      "constant": true,
      "inputs": [
        {
          "name": "coopid",
          "type": "uint256"
        }
      ],
      "name": "getCoopAddress",
      "outputs": [
        {
          "name": "",
          "type": "string"
        }
      ],
      "payable": false,
      "stateMutability": "view",
      "type": "function"
    },
    {
      "constant": true,
      "inputs": [
        {
          "name": "coopid",
          "type": "uint256"
        }
      ],
      "name": "getMembers",
      "outputs": [
        {
          "name": "",
          "type": "address[]"
        }
      ],
      "payable": false,
      "stateMutability": "view",
      "type": "function"
    },
    {
      "constant": true,
      "inputs": [
        {
          "name": "userid",
          "type": "address"
        }
      ],
      "name": "isCoopMember",
      "outputs": [
        {
          "name": "",
          "type": "bool"
        }
      ],
      "payable": false,
      "stateMutability": "view",
      "type": "function"
    },
    {
      "constant": true,
      "inputs": [
        {
          "name": "coopid",
          "type": "uint256"
        }
      ],
      "name": "getBoardOfDirectors",
      "outputs": [
        {
          "name": "",
          "type": "address[]"
        }
      ],
      "payable": false,
      "stateMutability": "view",
      "type": "function"
    }
  ],
  "bytecode": "0x608060405234801561001057600080fd5b50610bff806100206000396000f30060806040526004361061008e576000357c0100000000000000000000000000000000000000000000000000000000900463ffffffff1680637860fecb14610093578063bc08d3b614610211578063c2252e4d1461027a578063c477ecab14610320578063d98cf7c2146103a2578063db404bc014610412578063e9e798c514610482578063f1465ac614610504575b600080fd5b34801561009f57600080fd5b5061020f600480360381019080803590602001908201803590602001908080601f016020809104026020016040519081016040528093929190818152602001838380828437820191505050505050919291929080359060200190820180359060200190808060200260200160405190810160405280939291908181526020018383602002808284378201915050505050509192919290803590602001908201803590602001908080601f0160208091040260200160405190810160405280939291908181526020018383808284378201915050505050509192919290803590602001908201803590602001908080601f0160208091040260200160405190810160405280939291908181526020018383808284378201915050505050509192919290803590602001908201803590602001908080601f016020809104026020016040519081016040528093929190818152602001838380828437820191505050505050919291929050505061055f565b005b34801561021d57600080fd5b50610278600480360381019080803590602001908201803590602001908080601f0160208091040260200160405190810160405280939291908181526020018383808284378201915050505050509192919290505050610677565b005b34801561028657600080fd5b506102a560048036038101908080359060200190929190505050610723565b6040518080602001828103825283818151815260200191508051906020019080838360005b838110156102e55780820151818401526020810190506102ca565b50505050905090810190601f1680156103125780820380516001836020036101000a031916815260200191505b509250505060405180910390f35b34801561032c57600080fd5b5061034b600480360381019080803590602001909291905050506107db565b6040518080602001828103825283818151815260200191508051906020019060200280838360005b8381101561038e578082015181840152602081019050610373565b505050509050019250505060405180910390f35b3480156103ae57600080fd5b50610410600480360381019080803590602001908201803590602001908080602002602001604051908101604052809392919081815260200183836020028082843782019150505050505091929192908035906020019092919050505061087c565b005b34801561041e57600080fd5b5061048060048036038101908080359060200190820180359060200190808060200260200160405190810160405280939291908181526020018383602002808284378201915050505050509192919290803590602001909291905050506108a8565b005b34801561048e57600080fd5b506104ad600480360381019080803590602001909291905050506108d7565b6040518080602001828103825283818151815260200191508051906020019060200280838360005b838110156104f05780820151818401526020810190506104d5565b505050509050019250505060405180910390f35b34801561051057600080fd5b50610545600480360381019080803573ffffffffffffffffffffffffffffffffffffffff16906020019092919050505061097b565b604051808215151515815260200191505060405180910390f35b60008060008154809291906001019190505550600054905060c060405190810160405280878152602001868152602001858152602001848152602001838152602001600115158152506002600083815260200190815260200160002060008201518160000190805190602001906105d79291906109d7565b5060208201518160010190805190602001906105f4929190610a57565b5060408201518160020190805190602001906106119291906109d7565b50606082015181600301908051906020019061062e9291906109d7565b50608082015181600401908051906020019061064b9291906109d7565b5060a08201518160050160006101000a81548160ff021916908315150217905550905050505050505050565b60408051908101604052808281526020016000600781111561069557fe5b815250600160003373ffffffffffffffffffffffffffffffffffffffff1673ffffffffffffffffffffffffffffffffffffffff16815260200190815260200160002060008201518160000190805190602001906106f39291906109d7565b5060208201518160010160006101000a81548160ff0219169083600781111561071857fe5b021790555090505050565b6060600260008381526020019081526020016000206000018054600181600116156101000203166002900480601f0160208091040260200160405190810160405280929190818152602001828054600181600116156101000203166002900480156107cf5780601f106107a4576101008083540402835291602001916107cf565b820191906000526020600020905b8154815290600101906020018083116107b257829003601f168201915b50505050509050919050565b60606003600083815260200190815260200160002080548060200260200160405190810160405280929190818152602001828054801561087057602002820191906000526020600020905b8160009054906101000a900473ffffffffffffffffffffffffffffffffffffffff1673ffffffffffffffffffffffffffffffffffffffff1681526020019060010190808311610826575b50505050509050919050565b816003600083815260200190815260200160002090805190602001906108a3929190610ae1565b505050565b816002600083815260200190815260200160002060010190805190602001906108d2929190610ae1565b505050565b60606002600083815260200190815260200160002060010180548060200260200160405190810160405280929190818152602001828054801561096f57602002820191906000526020600020905b8160009054906101000a900473ffffffffffffffffffffffffffffffffffffffff1673ffffffffffffffffffffffffffffffffffffffff1681526020019060010190808311610925575b50505050509050919050565b600080600460008473ffffffffffffffffffffffffffffffffffffffff1673ffffffffffffffffffffffffffffffffffffffff1681526020019081526020016000205414156109cd57600090506109d2565b600190505b919050565b828054600181600116156101000203166002900490600052602060002090601f016020900481019282601f10610a1857805160ff1916838001178555610a46565b82800160010185558215610a46579182015b82811115610a45578251825591602001919060010190610a2a565b5b509050610a539190610b6b565b5090565b828054828255906000526020600020908101928215610ad0579160200282015b82811115610acf5782518260006101000a81548173ffffffffffffffffffffffffffffffffffffffff021916908373ffffffffffffffffffffffffffffffffffffffff16021790555091602001919060010190610a77565b5b509050610add9190610b90565b5090565b828054828255906000526020600020908101928215610b5a579160200282015b82811115610b595782518260006101000a81548173ffffffffffffffffffffffffffffffffffffffff021916908373ffffffffffffffffffffffffffffffffffffffff16021790555091602001919060010190610b01565b5b509050610b679190610b90565b5090565b610b8d91905b80821115610b89576000816000905550600101610b71565b5090565b90565b610bd091905b80821115610bcc57600081816101000a81549073ffffffffffffffffffffffffffffffffffffffff021916905550600101610b96565b5090565b905600a165627a7a72305820e8fbd2907136601649e1de6e7c465663fbab1d027c4409ffdf17b19c9208e4910029",
  "source": "pragma solidity ^0.4.24;\n\ncontract Psycellium{\n  enum roles { Member, Staff, Director, President, Manager, Secretary, Auditor, Treasurer }\n\n  uint private coopID;\n\n  struct Cooperative{\n    string coopAddress;\n    address[] director;\n    string coopName;\n    string coopDescription;\n    string issuedDate;\n    bool isExisting;\n  }\n\n  struct Member{\n    string name;\n    roles role;\n  }\n\n  struct Ballot{\n    address[] director;\n    uint coopID;\n    address voter;\n  }\n\n  mapping (address => Member) private members;\n  mapping (uint => Cooperative) private coops;\n\n  mapping (uint => address[]) private coop_members; // Key: CoopID | Value: MemberAddresses\n  mapping (address => uint) private member_coop;    // Key: MemberAddress | Value: CoopID\n\n  function setMemberName(string name) // Set Name, Make issued date 'NA', true\n  public {\n    members[msg.sender] = Member(name,roles.Member);\n  }\n\n  function setMember(address[] _members, uint _coopid)\n  public {\n    coop_members[_coopid] = _members;\n  }\n\n  /* function removeMember(){\n\n  } */\n\n  function createCoop(string coopaddress, address[] director ,string coopname, string coopdesc, string issueddate)\n  public {\n    coopID++;\n    uint id = coopID;\n    coops[id] = Cooperative(coopaddress, director, coopname, coopdesc, issueddate, true);\n  }\n\n  function setBoardOfDirectors(address[] directors, uint coopid )\n  public {\n    coops[coopid].director = directors;\n  }\n\n  function getCoopAddress(uint coopid)\n  public view returns (string){\n    return coops[coopid].coopAddress;\n  }\n\n  function getMembers(uint coopid)\n  public view returns(address[]){ // TODO Require Function\n    return coop_members[coopid];\n  }\n\n  function isCoopMember(address userid)\n  public view returns(bool){\n    if(member_coop[userid] == 0){\n      return false;\n    }\n    return true;\n  }\n\n  function getBoardOfDirectors(uint coopid)\n  public view returns (address[]){\n    return coops[coopid].director;\n  }\n/*\n  function voteDirector()\n  public {\n\n  }\n\n  function impeachDirector(){\n\n  }\n\n  function hireExecutive(){\n\n  }\n\n  function uploadConstitution(){\n\n  }\n\n  function reviseConstitution(){\n\n  } */\n}\n",
  "sourcePath": "/mnt/Files/Documents/Workspace/psycellium/ethereum/contracts/Psycellium.sol",
  "compiler": {
    "name": "solc",
    "version": "0.4.24+commit.e67f0147.Emscripten.clang"
  },
  "schemaVersion": "2.0.1",
  "updatedAt": "2018-11-24T16:37:15.630Z"
}