{
  "contractName": "Transactions",
  "abi": [
    {
      "constant": true,
      "inputs": [
        {
          "name": "borrower",
          "type": "address"
        }
      ],
      "name": "hasActiveLoan",
      "outputs": [
        {
          "name": "",
          "type": "bool"
        }
      ],
      "payable": false,
      "stateMutability": "view",
      "type": "function"
    },
    {
      "constant": true,
      "inputs": [
        {
          "name": "borrower",
          "type": "address"
        }
      ],
      "name": "getAmount",
      "outputs": [
        {
          "name": "",
          "type": "uint256"
        }
      ],
      "payable": false,
      "stateMutability": "view",
      "type": "function"
    },
    {
      "constant": false,
      "inputs": [
        {
          "name": "borrower",
          "type": "address"
        },
        {
          "name": "coopid",
          "type": "uint256"
        },
        {
          "name": "amount",
          "type": "uint256"
        },
        {
          "name": "interest",
          "type": "uint256"
        }
      ],
      "name": "requestLoan",
      "outputs": [],
      "payable": false,
      "stateMutability": "nonpayable",
      "type": "function"
    },
    {
      "constant": false,
      "inputs": [
        {
          "name": "borrower",
          "type": "address"
        },
        {
          "name": "repay",
          "type": "uint256"
        }
      ],
      "name": "repayLoan",
      "outputs": [],
      "payable": false,
      "stateMutability": "nonpayable",
      "type": "function"
    },
    {
      "constant": false,
      "inputs": [
        {
          "name": "borrower",
          "type": "address"
        }
      ],
      "name": "cancelLoanRequest",
      "outputs": [],
      "payable": false,
      "stateMutability": "nonpayable",
      "type": "function"
    },
    {
      "constant": false,
      "inputs": [
        {
          "name": "borrower",
          "type": "address"
        }
      ],
      "name": "approveLoan",
      "outputs": [],
      "payable": false,
      "stateMutability": "nonpayable",
      "type": "function"
    },
    {
      "constant": false,
      "inputs": [
        {
          "name": "borrower",
          "type": "address"
        }
      ],
      "name": "rejectLoan",
      "outputs": [],
      "payable": false,
      "stateMutability": "nonpayable",
      "type": "function"
    },
    {
      "constant": true,
      "inputs": [
        {
          "name": "guarrantor",
          "type": "address"
        },
        {
          "name": "grantee",
          "type": "address"
        },
        {
          "name": "issuedate",
          "type": "string"
        },
        {
          "name": "amt",
          "type": "uint256"
        }
      ],
      "name": "grantInvestment",
      "outputs": [
        {
          "name": "",
          "type": "uint256"
        }
      ],
      "payable": false,
      "stateMutability": "view",
      "type": "function"
    },
    {
      "constant": true,
      "inputs": [
        {
          "name": "coopid",
          "type": "uint256"
        },
        {
          "name": "coopaddress",
          "type": "address"
        },
        {
          "name": "user",
          "type": "address"
        }
      ],
      "name": "createBankAccount",
      "outputs": [
        {
          "name": "",
          "type": "uint256"
        }
      ],
      "payable": false,
      "stateMutability": "view",
      "type": "function"
    },
    {
      "constant": true,
      "inputs": [
        {
          "name": "user",
          "type": "address"
        },
        {
          "name": "desc",
          "type": "string"
        },
        {
          "name": "date",
          "type": "string"
        },
        {
          "name": "credited",
          "type": "uint256"
        }
      ],
      "name": "credit",
      "outputs": [
        {
          "name": "",
          "type": "uint256"
        }
      ],
      "payable": false,
      "stateMutability": "view",
      "type": "function"
    },
    {
      "constant": true,
      "inputs": [
        {
          "name": "user",
          "type": "address"
        },
        {
          "name": "desc",
          "type": "string"
        },
        {
          "name": "date",
          "type": "string"
        },
        {
          "name": "debited",
          "type": "uint256"
        }
      ],
      "name": "debit",
      "outputs": [
        {
          "name": "",
          "type": "uint256"
        }
      ],
      "payable": false,
      "stateMutability": "view",
      "type": "function"
    }
  ],
  "bytecode": "0x60806040526000805534801561001457600080fd5b506112e2806100246000396000f3006080604052600436106100af576000357c0100000000000000000000000000000000000000000000000000000000900463ffffffff16806321d4f8db146100b45780634b6925861461010f5780637a7b3630146101fc5780639240da011461027d57806392c79d12146102c057806393a595f514610321578063ac6403611461036e578063be8c4df1146103b1578063dbbe36d31461049e578063f5381b7f14610565578063f5a79767146105a8575b600080fd5b3480156100c057600080fd5b506100f5600480360381019080803573ffffffffffffffffffffffffffffffffffffffff1690602001909291905050506105ff565b604051808215151515815260200191505060405180910390f35b34801561011b57600080fd5b506101e6600480360381019080803573ffffffffffffffffffffffffffffffffffffffff169060200190929190803590602001908201803590602001908080601f0160208091040260200160405190810160405280939291908181526020018383808284378201915050505050509192919290803590602001908201803590602001908080601f016020809104026020016040519081016040528093929190818152602001838380828437820191505050505050919291929080359060200190929190505050610658565b6040518082815260200191505060405180910390f35b34801561020857600080fd5b5061026760048036038101908080359060200190929190803573ffffffffffffffffffffffffffffffffffffffff169060200190929190803573ffffffffffffffffffffffffffffffffffffffff16906020019092919050505061088e565b6040518082815260200191505060405180910390f35b34801561028957600080fd5b506102be600480360381019080803573ffffffffffffffffffffffffffffffffffffffff1690602001909291905050506109a4565b005b3480156102cc57600080fd5b5061031f600480360381019080803573ffffffffffffffffffffffffffffffffffffffff169060200190929190803590602001909291908035906020019092919080359060200190929190505050610a02565b005b34801561032d57600080fd5b5061036c600480360381019080803573ffffffffffffffffffffffffffffffffffffffff16906020019092919080359060200190929190505050610baa565b005b34801561037a57600080fd5b506103af600480360381019080803573ffffffffffffffffffffffffffffffffffffffff169060200190929190505050610c39565b005b3480156103bd57600080fd5b50610488600480360381019080803573ffffffffffffffffffffffffffffffffffffffff169060200190929190803590602001908201803590602001908080601f0160208091040260200160405190810160405280939291908181526020018383808284378201915050505050509192919290803590602001908201803590602001908080601f016020809104026020016040519081016040528093929190818152602001838380828437820191505050505050919291929080359060200190929190505050610ca0565b6040518082815260200191505060405180910390f35b3480156104aa57600080fd5b5061054f600480360381019080803573ffffffffffffffffffffffffffffffffffffffff169060200190929190803573ffffffffffffffffffffffffffffffffffffffff169060200190929190803590602001908201803590602001908080601f016020809104026020016040519081016040528093929190818152602001838380828437820191505050505050919291929080359060200190929190505050610ed6565b6040518082815260200191505060405180910390f35b34801561057157600080fd5b506105a6600480360381019080803573ffffffffffffffffffffffffffffffffffffffff169060200190929190505050611083565b005b3480156105b457600080fd5b506105e9600480360381019080803573ffffffffffffffffffffffffffffffffffffffff169060200190929190505050611145565b6040518082815260200191505060405180910390f35b6000600160008373ffffffffffffffffffffffffffffffffffffffff1673ffffffffffffffffffffffffffffffffffffffff16815260200190815260200160002060070160009054906101000a900460ff169050919050565b600080600360008773ffffffffffffffffffffffffffffffffffffffff1673ffffffffffffffffffffffffffffffffffffffff16815260200190815260200160002060020160008154809291906001019190505550600360008773ffffffffffffffffffffffffffffffffffffffff1673ffffffffffffffffffffffffffffffffffffffff16815260200190815260200160002060020154905084600360008873ffffffffffffffffffffffffffffffffffffffff1673ffffffffffffffffffffffffffffffffffffffff1681526020019081526020016000206003016000838152602001908152602001600020600001908051906020019061075c929190611191565b5083600360008873ffffffffffffffffffffffffffffffffffffffff1673ffffffffffffffffffffffffffffffffffffffff168152602001908152602001600020600301600083815260200190815260200160002060010190805190602001906107c7929190611191565b5082600360008873ffffffffffffffffffffffffffffffffffffffff1673ffffffffffffffffffffffffffffffffffffffff168152602001908152602001600020600301600083815260200190815260200160002060020160008282540192505081905550600360008773ffffffffffffffffffffffffffffffffffffffff1673ffffffffffffffffffffffffffffffffffffffff168152602001908152602001600020600301600082815260200190815260200160002060020154915050949350505050565b600083600360008473ffffffffffffffffffffffffffffffffffffffff1673ffffffffffffffffffffffffffffffffffffffff1681526020019081526020016000206000018190555082600360008473ffffffffffffffffffffffffffffffffffffffff1673ffffffffffffffffffffffffffffffffffffffff16815260200190815260200160002060010160006101000a81548173ffffffffffffffffffffffffffffffffffffffff021916908373ffffffffffffffffffffffffffffffffffffffff160217905550600360008373ffffffffffffffffffffffffffffffffffffffff1673ffffffffffffffffffffffffffffffffffffffff1681526020019081526020016000206000015490509392505050565b6000600160008373ffffffffffffffffffffffffffffffffffffffff1673ffffffffffffffffffffffffffffffffffffffff16815260200190815260200160002060070160006101000a81548160ff02191690831515021790555050565b6101006040519081016040528084815260200160016002811115610a2257fe5b8152602001838152602001600081526020018281526020016040805190810160405280600181526020017f2d0000000000000000000000000000000000000000000000000000000000000081525081526020016040805190810160405280600181526020017f2d00000000000000000000000000000000000000000000000000000000000000815250815260200160011515815250600160008673ffffffffffffffffffffffffffffffffffffffff1673ffffffffffffffffffffffffffffffffffffffff1681526020019081526020016000206000820151816000015560208201518160010160006101000a81548160ff02191690836002811115610b2457fe5b021790555060408201518160020155606082015181600301556080820151816004015560a0820151816005019080519060200190610b63929190611211565b5060c0820151816006019080519060200190610b80929190611211565b5060e08201518160070160006101000a81548160ff02191690831515021790555090505050505050565b80600160008473ffffffffffffffffffffffffffffffffffffffff1673ffffffffffffffffffffffffffffffffffffffff1681526020019081526020016000206002015403600160008473ffffffffffffffffffffffffffffffffffffffff1673ffffffffffffffffffffffffffffffffffffffff168152602001908152602001600020600201819055505050565b6000600160008373ffffffffffffffffffffffffffffffffffffffff1673ffffffffffffffffffffffffffffffffffffffff16815260200190815260200160002060010160006101000a81548160ff02191690836002811115610c9857fe5b021790555050565b600080600360008773ffffffffffffffffffffffffffffffffffffffff1673ffffffffffffffffffffffffffffffffffffffff16815260200190815260200160002060020160008154809291906001019190505550600360008773ffffffffffffffffffffffffffffffffffffffff1673ffffffffffffffffffffffffffffffffffffffff16815260200190815260200160002060020154905084600360008873ffffffffffffffffffffffffffffffffffffffff1673ffffffffffffffffffffffffffffffffffffffff16815260200190815260200160002060030160008381526020019081526020016000206000019080519060200190610da4929190611191565b5083600360008873ffffffffffffffffffffffffffffffffffffffff1673ffffffffffffffffffffffffffffffffffffffff16815260200190815260200160002060030160008381526020019081526020016000206001019080519060200190610e0f929190611191565b5082600360008873ffffffffffffffffffffffffffffffffffffffff1673ffffffffffffffffffffffffffffffffffffffff168152602001908152602001600020600301600083815260200190815260200160002060020160008282540192505081905550600360008773ffffffffffffffffffffffffffffffffffffffff1673ffffffffffffffffffffffffffffffffffffffff168152602001908152602001600020600301600082815260200190815260200160002060020154915050949350505050565b600082600260008773ffffffffffffffffffffffffffffffffffffffff1673ffffffffffffffffffffffffffffffffffffffff16815260200190815260200160002060000160008673ffffffffffffffffffffffffffffffffffffffff1673ffffffffffffffffffffffffffffffffffffffff1681526020019081526020016000206000019080519060200190610f6e929190611191565b5081600260008773ffffffffffffffffffffffffffffffffffffffff1673ffffffffffffffffffffffffffffffffffffffff16815260200190815260200160002060000160008673ffffffffffffffffffffffffffffffffffffffff1673ffffffffffffffffffffffffffffffffffffffff16815260200190815260200160002060010181905550600260008673ffffffffffffffffffffffffffffffffffffffff1673ffffffffffffffffffffffffffffffffffffffff16815260200190815260200160002060000160008573ffffffffffffffffffffffffffffffffffffffff1673ffffffffffffffffffffffffffffffffffffffff168152602001908152602001600020600101549050949350505050565b6002600160008373ffffffffffffffffffffffffffffffffffffffff1673ffffffffffffffffffffffffffffffffffffffff16815260200190815260200160002060010160006101000a81548160ff021916908360028111156110e257fe5b02179055506000600160008373ffffffffffffffffffffffffffffffffffffffff1673ffffffffffffffffffffffffffffffffffffffff16815260200190815260200160002060070160006101000a81548160ff02191690831515021790555050565b6000600160008373ffffffffffffffffffffffffffffffffffffffff1673ffffffffffffffffffffffffffffffffffffffff168152602001908152602001600020600201549050919050565b828054600181600116156101000203166002900490600052602060002090601f016020900481019282601f106111d257805160ff1916838001178555611200565b82800160010185558215611200579182015b828111156111ff5782518255916020019190600101906111e4565b5b50905061120d9190611291565b5090565b828054600181600116156101000203166002900490600052602060002090601f016020900481019282601f1061125257805160ff1916838001178555611280565b82800160010185558215611280579182015b8281111561127f578251825591602001919060010190611264565b5b50905061128d9190611291565b5090565b6112b391905b808211156112af576000816000905550600101611297565b5090565b905600a165627a7a72305820e3b3ce9f110ae01dae1b9e7ca1032e3a4a6567f0e081866c0af2aab88dc678d80029",
  "source": "\ncontract Transactions {\n\n  enum State {APPROVED, PENDING, REJECTED}\n\n  uint investID = 0;\n\n  struct Loan{\n    uint coopID;\n    State state;\n    uint amount;\n    uint repaid;\n    uint interest;\n    string issueDate;\n    string dueDate;\n    bool isActive;\n  }\n\n  struct Investment{\n    mapping (address => Grantee) grantees;\n  }\n\n  struct Grantee{\n    string issueDate;\n    uint amount;\n  }\n\n  struct Ledger{\n    string description;\n    string date;\n    uint balance;\n  }\n\n  struct Bank{\n    uint coopID;\n    address coopAddress;\n    uint txnCounter;\n    mapping(uint => Ledger) transactions;\n  }\n\n  mapping(address => Loan) private loans;\n  mapping(address => Investment) private investments;\n  mapping(address => Bank) private accounts;\n\n  function hasActiveLoan(address borrower)\n  public view returns(bool)\n  {\n    return loans[borrower].isActive;\n  }\n\n  function getAmount(address borrower)\n  public view returns(uint)\n  {\n    return loans[borrower].amount;\n  }\n\n  function requestLoan(address borrower, uint coopid, uint amount, uint interest)\n  public {\n    loans[borrower] = Loan(coopid, State.PENDING, amount, 0, interest, \"-\", \"-\", true);\n  }\n\n  function repayLoan(address borrower, uint repay)\n  public {\n    loans[borrower].amount = loans[borrower].amount - repay;\n  }\n\n  function cancelLoanRequest(address borrower)\n  public {\n    loans[borrower].isActive = false;\n  }\n\n  function approveLoan(address borrower)\n  public {\n    // Treasurer is the approver\n    /* require(members[msg.sender].role == roles.Treasurer);\n    require(!loans[borrower].isApproved, \"Already Approved\"); */\n    loans[borrower].state = State.APPROVED;\n  }\n\n  function rejectLoan(address borrower)\n  public {\n    /* require(members[msg.sender].role == roles.Treasurer);\n    require(loans[borrower].isApproved, \"Already Rejected\"); */\n    loans[borrower].state = State.REJECTED;\n    loans[borrower].isActive = false;\n  }\n\n  function grantInvestment(address guarrantor ,address grantee, string issuedate, uint amt)\n  public view returns (uint){\n    investments[guarrantor].grantees[grantee].issueDate = issuedate;\n    investments[guarrantor].grantees[grantee].amount = amt;\n\n    return investments[guarrantor].grantees[grantee].amount;\n  }\n\n  function createBankAccount(uint coopid, address coopaddress, address user)\n  public view returns (uint){\n    /* require(!bankAccount[msg.sender], \"Already have an account\"); */\n    accounts[user].coopID = coopid;\n    accounts[user].coopAddress = coopaddress;\n\n    return accounts[user].coopID;\n  }\n\n  function credit(address user, string desc, string date, uint credited )\n  public view returns (uint){\n    accounts[user].txnCounter++;\n    uint txn = accounts[user].txnCounter;\n    accounts[user].transactions[txn].description = desc;\n    accounts[user].transactions[txn].date = date;\n    accounts[user].transactions[txn].balance += credited;\n\n    return accounts[user].transactions[txn].balance;\n  }\n\n  function debit(address user, string desc, string date, uint debited )\n  public view returns (uint) {\n    accounts[user].txnCounter++;\n    uint txn = accounts[user].txnCounter;\n    accounts[user].transactions[txn].description = desc;\n    accounts[user].transactions[txn].date = date;\n    accounts[user].transactions[txn].balance += debited;\n\n    return accounts[user].transactions[txn].balance;\n  }\n}\n",
  "sourcePath": "/mnt/Files/Documents/Workspace/psycellium/ethereum/contracts/Transactions.sol",
  "compiler": {
    "name": "solc",
    "version": "0.4.24+commit.e67f0147.Emscripten.clang"
  },
  "schemaVersion": "2.0.1",
  "updatedAt": "2018-11-25T01:58:49.983Z"
}