{
  "contractName": "Transactions",
  "abi": [
    {
      "constant": false,
      "inputs": [
        {
          "name": "coopaddress",
          "type": "string"
        },
        {
          "name": "director",
          "type": "address[]"
        },
        {
          "name": "coopname",
          "type": "string"
        },
        {
          "name": "coopdesc",
          "type": "string"
        },
        {
          "name": "issueddate",
          "type": "string"
        }
      ],
      "name": "createCoop",
      "outputs": [],
      "payable": false,
      "stateMutability": "nonpayable",
      "type": "function"
    },
    {
      "constant": false,
      "inputs": [
        {
          "name": "name",
          "type": "string"
        }
      ],
      "name": "setMemberName",
      "outputs": [],
      "payable": false,
      "stateMutability": "nonpayable",
      "type": "function"
    },
    {
      "constant": true,
      "inputs": [
        {
          "name": "coopid",
          "type": "uint256"
        }
      ],
      "name": "getCoopAddress",
      "outputs": [
        {
          "name": "",
          "type": "string"
        }
      ],
      "payable": false,
      "stateMutability": "view",
      "type": "function"
    },
    {
      "constant": true,
      "inputs": [
        {
          "name": "coopid",
          "type": "uint256"
        }
      ],
      "name": "getMembers",
      "outputs": [
        {
          "name": "",
          "type": "address[]"
        }
      ],
      "payable": false,
      "stateMutability": "view",
      "type": "function"
    },
    {
      "constant": false,
      "inputs": [
        {
          "name": "_members",
          "type": "address[]"
        },
        {
          "name": "_coopid",
          "type": "uint256"
        }
      ],
      "name": "setMember",
      "outputs": [],
      "payable": false,
      "stateMutability": "nonpayable",
      "type": "function"
    },
    {
      "constant": false,
      "inputs": [
        {
          "name": "directors",
          "type": "address[]"
        },
        {
          "name": "coopid",
          "type": "uint256"
        }
      ],
      "name": "setBoardOfDirectors",
      "outputs": [],
      "payable": false,
      "stateMutability": "nonpayable",
      "type": "function"
    },
    {
      "constant": true,
      "inputs": [
        {
          "name": "coopid",
          "type": "uint256"
        }
      ],
      "name": "getBoardOfDirectors",
      "outputs": [
        {
          "name": "",
          "type": "address[]"
        }
      ],
      "payable": false,
      "stateMutability": "view",
      "type": "function"
    },
    {
      "constant": true,
      "inputs": [
        {
          "name": "userid",
          "type": "address"
        }
      ],
      "name": "isCoopMember",
      "outputs": [
        {
          "name": "",
          "type": "bool"
        }
      ],
      "payable": false,
      "stateMutability": "view",
      "type": "function"
    },
    {
      "constant": false,
      "inputs": [
        {
          "name": "borrower",
          "type": "address"
        }
      ],
      "name": "hasActiveLoan",
      "outputs": [
        {
          "name": "",
          "type": "bool"
        }
      ],
      "payable": false,
      "stateMutability": "nonpayable",
      "type": "function"
    },
    {
      "constant": false,
      "inputs": [
        {
          "name": "borrower",
          "type": "address"
        },
        {
          "name": "coopid",
          "type": "uint256"
        },
        {
          "name": "amount",
          "type": "uint256"
        },
        {
          "name": "interest",
          "type": "uint256"
        }
      ],
      "name": "requestLoan",
      "outputs": [],
      "payable": false,
      "stateMutability": "nonpayable",
      "type": "function"
    },
    {
      "constant": false,
      "inputs": [
        {
          "name": "borrower",
          "type": "address"
        },
        {
          "name": "repay",
          "type": "uint256"
        }
      ],
      "name": "repayLoan",
      "outputs": [],
      "payable": false,
      "stateMutability": "nonpayable",
      "type": "function"
    },
    {
      "constant": false,
      "inputs": [
        {
          "name": "borrower",
          "type": "address"
        }
      ],
      "name": "cancelLoanRequest",
      "outputs": [],
      "payable": false,
      "stateMutability": "nonpayable",
      "type": "function"
    },
    {
      "constant": false,
      "inputs": [
        {
          "name": "borrower",
          "type": "address"
        }
      ],
      "name": "approveLoan",
      "outputs": [],
      "payable": false,
      "stateMutability": "nonpayable",
      "type": "function"
    },
    {
      "constant": false,
      "inputs": [
        {
          "name": "borrower",
          "type": "address"
        }
      ],
      "name": "rejectLoan",
      "outputs": [],
      "payable": false,
      "stateMutability": "nonpayable",
      "type": "function"
    },
    {
      "constant": false,
      "inputs": [
        {
          "name": "guarrantor",
          "type": "address"
        },
        {
          "name": "grantee",
          "type": "address"
        },
        {
          "name": "issuedate",
          "type": "string"
        },
        {
          "name": "amt",
          "type": "uint256"
        }
      ],
      "name": "grantInvestment",
      "outputs": [],
      "payable": false,
      "stateMutability": "nonpayable",
      "type": "function"
    },
    {
      "constant": false,
      "inputs": [
        {
          "name": "coopid",
          "type": "uint256"
        },
        {
          "name": "coopaddress",
          "type": "address"
        },
        {
          "name": "user",
          "type": "address"
        },
        {
          "name": "_date",
          "type": "string"
        },
        {
          "name": "_bal",
          "type": "uint256"
        }
      ],
      "name": "createBankAccount",
      "outputs": [],
      "payable": false,
      "stateMutability": "nonpayable",
      "type": "function"
    },
    {
      "constant": false,
      "inputs": [
        {
          "name": "user",
          "type": "address"
        },
        {
          "name": "desc",
          "type": "string"
        },
        {
          "name": "date",
          "type": "string"
        },
        {
          "name": "credited",
          "type": "uint256"
        }
      ],
      "name": "credit",
      "outputs": [],
      "payable": false,
      "stateMutability": "nonpayable",
      "type": "function"
    },
    {
      "constant": false,
      "inputs": [
        {
          "name": "user",
          "type": "address"
        },
        {
          "name": "desc",
          "type": "string"
        },
        {
          "name": "date",
          "type": "string"
        },
        {
          "name": "debited",
          "type": "uint256"
        }
      ],
      "name": "debit",
      "outputs": [],
      "payable": false,
      "stateMutability": "nonpayable",
      "type": "function"
    }
  ],
  "bytecode": "0x6080604052600060075534801561001557600080fd5b50611bc9806100256000396000f3006080604052600436106100fc576000357c0100000000000000000000000000000000000000000000000000000000900463ffffffff16806321d4f8db146101015780634b6925861461015c578063591644f4146102355780637860fecb146102f25780639240da011461047057806392c79d12146104b357806393a595f514610514578063ac64036114610561578063bc08d3b6146105a4578063be8c4df11461060d578063c2252e4d146106e6578063c477ecab1461078c578063d98cf7c21461080e578063db404bc01461087e578063dbbe36d3146108ee578063e9e798c5146109a1578063f1465ac614610a23578063f5381b7f14610a7e575b600080fd5b34801561010d57600080fd5b50610142600480360381019080803573ffffffffffffffffffffffffffffffffffffffff169060200190929190505050610ac1565b604051808215151515815260200191505060405180910390f35b34801561016857600080fd5b50610233600480360381019080803573ffffffffffffffffffffffffffffffffffffffff169060200190929190803590602001908201803590602001908080601f0160208091040260200160405190810160405280939291908181526020018383808284378201915050505050509192919290803590602001908201803590602001908080601f016020809104026020016040519081016040528093929190818152602001838380828437820191505050505050919291929080359060200190929190505050610b1a565b005b34801561024157600080fd5b506102f060048036038101908080359060200190929190803573ffffffffffffffffffffffffffffffffffffffff169060200190929190803573ffffffffffffffffffffffffffffffffffffffff169060200190929190803590602001908201803590602001908080601f016020809104026020016040519081016040528093929190818152602001838380828437820191505050505050919291929080359060200190929190505050610cf4565b005b3480156102fe57600080fd5b5061046e600480360381019080803590602001908201803590602001908080601f016020809104026020016040519081016040528093929190818152602001838380828437820191505050505050919291929080359060200190820180359060200190808060200260200160405190810160405280939291908181526020018383602002808284378201915050505050509192919290803590602001908201803590602001908080601f0160208091040260200160405190810160405280939291908181526020018383808284378201915050505050509192919290803590602001908201803590602001908080601f0160208091040260200160405190810160405280939291908181526020018383808284378201915050505050509192919290803590602001908201803590602001908080601f0160208091040260200160405190810160405280939291908181526020018383808284378201915050505050509192919290505050610dc3565b005b34801561047c57600080fd5b506104b1600480360381019080803573ffffffffffffffffffffffffffffffffffffffff169060200190929190505050610edb565b005b3480156104bf57600080fd5b50610512600480360381019080803573ffffffffffffffffffffffffffffffffffffffff169060200190929190803590602001909291908035906020019092919080359060200190929190505050610f39565b005b34801561052057600080fd5b5061055f600480360381019080803573ffffffffffffffffffffffffffffffffffffffff169060200190929190803590602001909291905050506110e1565b005b34801561056d57600080fd5b506105a2600480360381019080803573ffffffffffffffffffffffffffffffffffffffff169060200190929190505050611170565b005b3480156105b057600080fd5b5061060b600480360381019080803590602001908201803590602001908080601f01602080910402602001604051908101604052809392919081815260200183838082843782019150505050505091929192905050506111d7565b005b34801561061957600080fd5b506106e4600480360381019080803573ffffffffffffffffffffffffffffffffffffffff169060200190929190803590602001908201803590602001908080601f0160208091040260200160405190810160405280939291908181526020018383808284378201915050505050509192919290803590602001908201803590602001908080601f0160208091040260200160405190810160405280939291908181526020018383808284378201915050505050509192919290803590602001909291905050506112ad565b005b3480156106f257600080fd5b5061071160048036038101908080359060200190929190505050611487565b6040518080602001828103825283818151815260200191508051906020019080838360005b83811015610751578082015181840152602081019050610736565b50505050905090810190601f16801561077e5780820380516001836020036101000a031916815260200191505b509250505060405180910390f35b34801561079857600080fd5b506107b76004803603810190808035906020019092919050505061153f565b6040518080602001828103825283818151815260200191508051906020019060200280838360005b838110156107fa5780820151818401526020810190506107df565b505050509050019250505060405180910390f35b34801561081a57600080fd5b5061087c60048036038101908080359060200190820180359060200190808060200260200160405190810160405280939291908181526020018383602002808284378201915050505050509192919290803590602001909291905050506115e0565b005b34801561088a57600080fd5b506108ec600480360381019080803590602001908201803590602001908080602002602001604051908101604052809392919081815260200183836020028082843782019150505050505091929192908035906020019092919050505061160c565b005b3480156108fa57600080fd5b5061099f600480360381019080803573ffffffffffffffffffffffffffffffffffffffff169060200190929190803573ffffffffffffffffffffffffffffffffffffffff169060200190929190803590602001908201803590602001908080601f01602080910402602001604051908101604052809392919081815260200183838082843782019150505050505091929192908035906020019092919050505061163b565b005b3480156109ad57600080fd5b506109cc6004803603810190808035906020019092919050505061175f565b6040518080602001828103825283818151815260200191508051906020019060200280838360005b83811015610a0f5780820151818401526020810190506109f4565b505050509050019250505060405180910390f35b348015610a2f57600080fd5b50610a64600480360381019080803573ffffffffffffffffffffffffffffffffffffffff169060200190929190505050611803565b604051808215151515815260200191505060405180910390f35b348015610a8a57600080fd5b50610abf600480360381019080803573ffffffffffffffffffffffffffffffffffffffff16906020019092919050505061185f565b005b6000600860008373ffffffffffffffffffffffffffffffffffffffff1673ffffffffffffffffffffffffffffffffffffffff16815260200190815260200160002060070160009054906101000a900460ff169050919050565b6000600a60008673ffffffffffffffffffffffffffffffffffffffff1673ffffffffffffffffffffffffffffffffffffffff16815260200190815260200160002060020160008154809291906001019190505550600a60008673ffffffffffffffffffffffffffffffffffffffff1673ffffffffffffffffffffffffffffffffffffffff16815260200190815260200160002060020154905083600a60008773ffffffffffffffffffffffffffffffffffffffff1673ffffffffffffffffffffffffffffffffffffffff16815260200190815260200160002060030160008381526020019081526020016000206000019080519060200190610c1d929190611921565b5082600a60008773ffffffffffffffffffffffffffffffffffffffff1673ffffffffffffffffffffffffffffffffffffffff16815260200190815260200160002060030160008381526020019081526020016000206001019080519060200190610c88929190611921565b5081600a60008773ffffffffffffffffffffffffffffffffffffffff1673ffffffffffffffffffffffffffffffffffffffff1681526020019081526020016000206003016000838152602001908152602001600020600201600082825401925050819055505050505050565b84600a60008573ffffffffffffffffffffffffffffffffffffffff1673ffffffffffffffffffffffffffffffffffffffff1681526020019081526020016000206000018190555083600a60008573ffffffffffffffffffffffffffffffffffffffff1673ffffffffffffffffffffffffffffffffffffffff16815260200190815260200160002060010160006101000a81548173ffffffffffffffffffffffffffffffffffffffff021916908373ffffffffffffffffffffffffffffffffffffffff1602179055505050505050565b60008060008154809291906001019190505550600054905060c06040519081016040528087815260200186815260200185815260200184815260200183815260200160011515815250600460008381526020019081526020016000206000820151816000019080519060200190610e3b9291906119a1565b506020820151816001019080519060200190610e58929190611a21565b506040820151816002019080519060200190610e759291906119a1565b506060820151816003019080519060200190610e929291906119a1565b506080820151816004019080519060200190610eaf9291906119a1565b5060a08201518160050160006101000a81548160ff021916908315150217905550905050505050505050565b6000600860008373ffffffffffffffffffffffffffffffffffffffff1673ffffffffffffffffffffffffffffffffffffffff16815260200190815260200160002060070160006101000a81548160ff02191690831515021790555050565b6101006040519081016040528084815260200160016002811115610f5957fe5b8152602001838152602001600081526020018281526020016040805190810160405280600181526020017f2d0000000000000000000000000000000000000000000000000000000000000081525081526020016040805190810160405280600181526020017f2d00000000000000000000000000000000000000000000000000000000000000815250815260200160011515815250600860008673ffffffffffffffffffffffffffffffffffffffff1673ffffffffffffffffffffffffffffffffffffffff1681526020019081526020016000206000820151816000015560208201518160010160006101000a81548160ff0219169083600281111561105b57fe5b021790555060408201518160020155606082015181600301556080820151816004015560a082015181600501908051906020019061109a9291906119a1565b5060c08201518160060190805190602001906110b79291906119a1565b5060e08201518160070160006101000a81548160ff02191690831515021790555090505050505050565b80600860008473ffffffffffffffffffffffffffffffffffffffff1673ffffffffffffffffffffffffffffffffffffffff1681526020019081526020016000206002015403600860008473ffffffffffffffffffffffffffffffffffffffff1673ffffffffffffffffffffffffffffffffffffffff168152602001908152602001600020600201819055505050565b6000600860008373ffffffffffffffffffffffffffffffffffffffff1673ffffffffffffffffffffffffffffffffffffffff16815260200190815260200160002060010160006101000a81548160ff021916908360028111156111cf57fe5b021790555050565b606060405190810160405280828152602001600115158152602001600060078111156111ff57fe5b815250600360003373ffffffffffffffffffffffffffffffffffffffff1673ffffffffffffffffffffffffffffffffffffffff168152602001908152602001600020600082015181600001908051906020019061125d9291906119a1565b5060208201518160010160006101000a81548160ff02191690831515021790555060408201518160010160016101000a81548160ff021916908360078111156112a257fe5b021790555090505050565b6000600a60008673ffffffffffffffffffffffffffffffffffffffff1673ffffffffffffffffffffffffffffffffffffffff16815260200190815260200160002060020160008154809291906001019190505550600a60008673ffffffffffffffffffffffffffffffffffffffff1673ffffffffffffffffffffffffffffffffffffffff16815260200190815260200160002060020154905083600a60008773ffffffffffffffffffffffffffffffffffffffff1673ffffffffffffffffffffffffffffffffffffffff168152602001908152602001600020600301600083815260200190815260200160002060000190805190602001906113b0929190611921565b5082600a60008773ffffffffffffffffffffffffffffffffffffffff1673ffffffffffffffffffffffffffffffffffffffff1681526020019081526020016000206003016000838152602001908152602001600020600101908051906020019061141b929190611921565b5081600a60008773ffffffffffffffffffffffffffffffffffffffff1673ffffffffffffffffffffffffffffffffffffffff1681526020019081526020016000206003016000838152602001908152602001600020600201600082825401925050819055505050505050565b6060600460008381526020019081526020016000206000018054600181600116156101000203166002900480601f0160208091040260200160405190810160405280929190818152602001828054600181600116156101000203166002900480156115335780601f1061150857610100808354040283529160200191611533565b820191906000526020600020905b81548152906001019060200180831161151657829003601f168201915b50505050509050919050565b6060600560008381526020019081526020016000208054806020026020016040519081016040528092919081815260200182805480156115d457602002820191906000526020600020905b8160009054906101000a900473ffffffffffffffffffffffffffffffffffffffff1673ffffffffffffffffffffffffffffffffffffffff168152602001906001019080831161158a575b50505050509050919050565b81600560008381526020019081526020016000209080519060200190611607929190611aab565b505050565b81600460008381526020019081526020016000206001019080519060200190611636929190611aab565b505050565b81600960008673ffffffffffffffffffffffffffffffffffffffff1673ffffffffffffffffffffffffffffffffffffffff16815260200190815260200160002060000160008573ffffffffffffffffffffffffffffffffffffffff1673ffffffffffffffffffffffffffffffffffffffff16815260200190815260200160002060000190805190602001906116d1929190611921565b5080600960008673ffffffffffffffffffffffffffffffffffffffff1673ffffffffffffffffffffffffffffffffffffffff16815260200190815260200160002060000160008573ffffffffffffffffffffffffffffffffffffffff1673ffffffffffffffffffffffffffffffffffffffff1681526020019081526020016000206001018190555050505050565b6060600460008381526020019081526020016000206001018054806020026020016040519081016040528092919081815260200182805480156117f757602002820191906000526020600020905b8160009054906101000a900473ffffffffffffffffffffffffffffffffffffffff1673ffffffffffffffffffffffffffffffffffffffff16815260200190600101908083116117ad575b50505050509050919050565b600080600660008473ffffffffffffffffffffffffffffffffffffffff1673ffffffffffffffffffffffffffffffffffffffff168152602001908152602001600020541415611855576000905061185a565b600190505b919050565b6002600860008373ffffffffffffffffffffffffffffffffffffffff1673ffffffffffffffffffffffffffffffffffffffff16815260200190815260200160002060010160006101000a81548160ff021916908360028111156118be57fe5b02179055506000600860008373ffffffffffffffffffffffffffffffffffffffff1673ffffffffffffffffffffffffffffffffffffffff16815260200190815260200160002060070160006101000a81548160ff02191690831515021790555050565b828054600181600116156101000203166002900490600052602060002090601f016020900481019282601f1061196257805160ff1916838001178555611990565b82800160010185558215611990579182015b8281111561198f578251825591602001919060010190611974565b5b50905061199d9190611b35565b5090565b828054600181600116156101000203166002900490600052602060002090601f016020900481019282601f106119e257805160ff1916838001178555611a10565b82800160010185558215611a10579182015b82811115611a0f5782518255916020019190600101906119f4565b5b509050611a1d9190611b35565b5090565b828054828255906000526020600020908101928215611a9a579160200282015b82811115611a995782518260006101000a81548173ffffffffffffffffffffffffffffffffffffffff021916908373ffffffffffffffffffffffffffffffffffffffff16021790555091602001919060010190611a41565b5b509050611aa79190611b5a565b5090565b828054828255906000526020600020908101928215611b24579160200282015b82811115611b235782518260006101000a81548173ffffffffffffffffffffffffffffffffffffffff021916908373ffffffffffffffffffffffffffffffffffffffff16021790555091602001919060010190611acb565b5b509050611b319190611b5a565b5090565b611b5791905b80821115611b53576000816000905550600101611b3b565b5090565b90565b611b9a91905b80821115611b9657600081816101000a81549073ffffffffffffffffffffffffffffffffffffffff021916905550600101611b60565b5090565b905600a165627a7a72305820f340be4e30a27171c11fc94a07a39ae60a00173a60cd9d1ab40a73d6b6edd7800029",
  "source": "pragma solidity ^0.4.24;\n\ncontract Psycellium{\n  enum roles { Member, Staff, Director, President, Manager, Secretary, Auditor, Treasurer }\n\n  uint private coopID;\n  uint private landID;\n  uint private bankID;\n\n  struct Cooperative{\n    string coopAddress;\n    address[] director;\n    string coopName;\n    string coopDescription;\n    string issuedDate;\n    bool isExisting;\n  }\n\n  struct Member{\n    string name;\n    bool isActive;\n    roles role;\n  }\n\n  mapping (address => Member) private members; // Get all members | Key: Address | Value: Member Struct [name, isActive, role]\n  mapping (uint => Cooperative) private coops; // Get all Coops | Key: Uint | Value: Cooperative Struct []\n\n  mapping (uint => address[]) private coop_members; // Key: CoopID | Value: MemberAddresses\n  mapping (address => uint) private member_coop;    // Key: MemberAddress | Value: CoopID\n\n  function setMemberName(string name) // Set Name, Make issued date 'NA', true\n  public {\n    members[msg.sender] = Member(name, true, roles.Member);\n  }\n\n  function setMember(address[] _members, uint _coopid)\n  public {\n    coop_members[_coopid] = _members;\n  }\n\n  function createCoop(string coopaddress, address[] director ,string coopname, string coopdesc, string issueddate)\n  public {\n    coopID++;\n    uint id = coopID;\n    coops[id] = Cooperative(coopaddress, director, coopname, coopdesc, issueddate, true);\n  }\n\n  function setBoardOfDirectors(address[] directors, uint coopid )\n  public {\n    coops[coopid].director = directors;\n  }\n\n  function getCoopAddress(uint coopid)\n  public view returns (string){\n    return coops[coopid].coopAddress;\n  }\n\n  function getMembers(uint coopid)\n  public view returns(address[]){ // TODO Require Function\n    return coop_members[coopid];\n  }\n\n  function isCoopMember(address userid)\n  public view returns(bool){\n    if(member_coop[userid] == 0){\n      return false;\n    }\n    return true;\n  }\n\n  function getBoardOfDirectors(uint coopid)\n  public view returns (address[]){\n    return coops[coopid].director;\n  }\n}\n\ncontract Transactions is Psycellium{\n\n  enum State {APPROVED, PENDING, REJECTED}\n\n  uint investID = 0;\n\n  struct Loan{\n    uint coopID;\n    State state;\n    uint amount;\n    uint repaid;\n    uint interest;\n    string issueDate;\n    string dueDate;\n    bool isActive;\n  }\n\n  struct Investment{\n    mapping (address => Grantee) grantees;\n  }\n\n  struct Grantee{\n    string issueDate;\n    uint amount;\n  }\n\n  struct Ledger{\n    string description;\n    string date;\n    uint balance;\n  }\n\n  struct Bank{\n    uint coopID;\n    address coopAddress;\n    uint txnCounter;\n    mapping(uint => Ledger) transactions;\n  }\n\n  mapping(address => Loan) private loans;\n  mapping(address => Investment) private investments;\n  mapping(address => Bank) private accounts;\n\n  function hasActiveLoan(address borrower)\n  public returns(bool)\n  {\n    return loans[borrower].isActive;\n  }\n\n  function requestLoan(address borrower, uint coopid, uint amount, uint interest)\n  public {\n    loans[borrower] = Loan(coopid, State.PENDING, amount, 0, interest, '-', '-', true);\n  }\n\n  function repayLoan(address borrower, uint repay){\n    loans[borrower].amount = loans[borrower].amount - repay;\n  }\n\n  function cancelLoanRequest(address borrower)\n  public {\n    loans[borrower].isActive = false;\n  }\n\n  function approveLoan(address borrower)\n  public {\n    // Treasurer is the approver\n    /* require(members[msg.sender].role == roles.Treasurer);\n    require(!loans[borrower].isApproved, \"Already Approved\"); */\n    loans[borrower].state = State.APPROVED;\n  }\n\n  function rejectLoan(address borrower)\n  public {\n    /* require(members[msg.sender].role == roles.Treasurer);\n    require(loans[borrower].isApproved, \"Already Rejected\"); */\n    loans[borrower].state = State.REJECTED;\n    loans[borrower].isActive = false;\n  }\n\n  function grantInvestment(address guarrantor ,address grantee, string issuedate, uint amt)\n  public {\n    investments[guarrantor].grantees[grantee].issueDate = issuedate;\n    investments[guarrantor].grantees[grantee].amount = amt;\n  }\n\n  function createBankAccount(uint coopid, address coopaddress, address user, string _date, uint _bal)\n  public {\n    /* require(!bankAccount[msg.sender], \"Already have an account\"); */\n    accounts[user].coopID = coopid;\n    accounts[user].coopAddress = coopaddress;\n  }\n\n  function credit(address user, string desc, string date, uint credited )\n  public {\n    accounts[user].txnCounter++;\n    uint txn = accounts[user].txnCounter;\n    accounts[user].transactions[txn].description = desc;\n    accounts[user].transactions[txn].date = date;\n    accounts[user].transactions[txn].balance += credited;\n  }\n\n  function debit(address user, string desc, string date, uint debited )\n  public {\n    accounts[user].txnCounter++;\n    uint txn = accounts[user].txnCounter;\n    accounts[user].transactions[txn].description = desc;\n    accounts[user].transactions[txn].date = date;\n    accounts[user].transactions[txn].balance += debited;\n  }\n}\n",
  "sourcePath": "/mnt/Files/Documents/Workspace/psycellium/ethereum/contracts/Psycellium.sol",
  "compiler": {
    "name": "solc",
    "version": "0.4.24+commit.e67f0147.Emscripten.clang"
  },
  "schemaVersion": "2.0.1",
  "updatedAt": "2018-11-24T23:05:38.196Z"
}